:100000000C9439010C944B010C944B010C945C3210
:100010000C94082F0C944B010C944B010C944B0145
:100020000C944B010C944B010C944B010C94562FE7
:100030000C944B010C944B010C944B010C944B0110
:100040000C94402F0C944B010C9492310C9432324E
:100050000C944B010C944B010C944B010C944B01F0
:100060000C944B010C944B01084AD73B3BCE016EDC
:1000700084BCBFFDC12F3D6C74319ABD56833DDAFF
:100080003D00C77F11BED9E4BB4C3E916BAAAABE0E
:10009000000000803F05A84CCDB2D44EB93836A937
:1000A000020C50B9918688083CA6AAAA2ABE000074
:1000B00000803F000D0A4772626C20312E316620AD
:1000C0005B27242720666F722068656C705D0D0ABF
:1000D00000244E005B4F50543A005B5645523A3173
:1000E0002E31662E32303137303830313A005B54A1
:1000F0004C4F3A005B4739323A0033300032380017
:100100005B4700204700204D002053002046002080
:10011000540033382E005B47433A47005B484C504D
:100120003A242420242320244720244920244E201C
:1001300024783D76616C20244E783D6C696E652094
:10014000244A3D6C696E652024534C502024432082
:100150002458202448207E2021203F206374726C84
:100160002D785D0D0A00414C41524D3A007C413AD8
:10017000007C4F763A007C57434F3A007C506E3AF1
:10018000007C57506F733A007C4D506F733A0053A8
:100190006C65657000446F6F723A00436865636B0D
:1001A00000416C61726D00486F6D65004A6F6700B9
:1001B000486F6C643A0052756E0049646C65000DBE
:1001C0000A005B5052423A006572726F723A006FD9
:1001D0006B0D0A00536C656570696E67005265733C
:1001E000746F72696E67207370696E646C6500521B
:1001F0006573746F72696E672064656661756C748F
:10020000730050676D20456E6400436865636B2022
:100210004C696D69747300436865636B20446F6F4C
:10022000720044697361626C656400456E61626C62
:1002300065640043617574696F6E3A20556E6C6F2A
:10024000636B656400272448277C27245827207483
:100250006F20756E6C6F636B0052657365742074EC
:100260006F20636F6E74696E7565005B4D53473A1E
:10027000000011241FBECFEFD8E0DEBFCDBF27E0C6
:10028000A0E0B1E001C01D92AD35B207E1F70E94D8
:100290008B320C94FC3C0C9400008F929F92AF9296
:1002A000BF92CF92DF92EF92FF920F931F93CF9363
:1002B000DF937C016B01DC01EC91F0E0E35FF84F30
:1002C0008081EF018D3229F52296818101E0912C08
:1002D000F0E010E020E030E0A9015E01E0EDE80F81
:1002E000EA3018F5FF5FF930E0F491101150A5E005
:1002F000B0E00E94D53C9B01AC01220F331F441F8C
:10030000551F2E0F311D411D511D2196D5018C9178
:10031000E4CF8B3219F0219600E0D9CF229681816B
:10032000FBCF9110F2CF1F5FF0CFEE3F29F4911079
:1003300003C099249394E9CFFF23F9F0CA01B901CE
:100340000E94B5394B015C0120E030E0A9010E9418
:10035000033981112BC0002309F445C0B7FAB094CA
:10036000B7F8B094F60180829182A282B382CD5018
:10037000D740C150F701C083F1E08F2FDF91CF91BB
:100380001F910F91FF90EF90DF90CF90BF90AF90B3
:100390009F908F9008952AE037ED43E25CE3C5011A
:1003A000B4010E94653B4B015C011E5F1F3F9CF343
:1003B0001F3F59F42DEC3CEC4CEC5DE3C501B4015E
:1003C0000E94653B4B015C01C6CF112321F220E066
:1003D00030E040E251E4C501B4010E94653B4B01AD
:1003E0005C011150F2CFD6018D929D92AD92BC92DC
:1003F0001397BDCF2FB7F89490911206892B809355
:1004000012062FBF08952FB7F89490911106892BEB
:10041000809311062FBF08959FB7F894809310061C
:100420009FBF08959FB7F89420910F06809582236F
:1004300080930F069FBF08952FB7F89490910F06F1
:10044000892B80930F062FBF0895AF92BF92CF9252
:10045000DF92EF92FF920F931F93CF93DF93EC0104
:1004600002E616E05C018CE0A80EB11CC990D990A0
:10047000E990F99020E030E0A901C701B6010E949F
:10048000253B1816DCF0F8012191319141915191F1
:100490008F01C701B6010E94033987FD0FC0CA153D
:1004A000DB0521F780E0DF91CF911F910F91FF9045
:1004B000EF90DF90CF90BF90AF90089581E0F3CFA1
:1004C0004F925F926F927F928F929F92AF92BF9264
:1004D000CF92DF92EF92FF920F931F93CF938B01F6
:1004E0006C017B01C0E082E0882E912CA12CB12C04
:1004F000C1113BC0F8016081718182819381448088
:10050000558066807780640D751D861D971DA50139
:1005100094010E94B03CCA01B9010E94B7392091F0
:100520003E0630913F0640914006509141060E94A0
:100530000D39F60161937193819391936F01CF5FB0
:10054000F4E0EF0EF11CC33099F6CF911F910F919B
:10055000FF90EF90DF90CF90BF90AF909F908F90E3
:100560007F906F905F904F900895C130F1F4F80143
:10057000608171818281938144805580668077801B
:100580006419750986099709A50194010E94B03C78
:10059000CA01B9010E94B739209142063091430641
:1005A0004091440650914506C2CFF70160817181A8
:1005B000828193810E94B739209146063091470687
:1005C0004091480650914906B2CF96B1892F877065
:1005D00039F0892F8095817091FF826092FF84604D
:1005E0000895CF93DF93C0910D06D0910E0620970A
:1005F000C9F08091DE0581608093DE056091F4058D
:100600007091F5058091F6059091F7059B01AC017D
:100610000E94653B6A8B7B8B8C8B9D8B10920E06A8
:1006200010920D06DF91CF91089590916F06492F9A
:1006300080917006282F90FF11C094E080FF10C0B9
:1006400080E241FD986021FD806442FD906122FDC1
:10065000806890930B0280930C02089590E0EECF97
:1006600080E0EFCF8091830682FF13C0289A8091AB
:100670000B0280931C0280916E068250990B880FAA
:10068000819580931B0280916F00826080936F0040
:1006900008952898ECCF90912E06911107C08111F2
:1006A00006C080E18093B300109238060895CB0114
:1006B000BA010E947F399B01AC01A7E1B0E00E9422
:1006C000D53C24EB30E040E050E00E94B03C205F9D
:1006D000203120F420E12093B300E6CF2832D8F374
:1006E00027E2F9CF259A239A83E88093B00087E028
:1006F0008093B10080E18093B3000895E0911D01E3
:1007000091E09E0F993609F490E020918701291716
:1007100061F0F0E0E25EFE4F808390931D018091D6
:10072000C10080628093C10004C020910F0624FFA5
:10073000ECCF0895CF93DF93CDE0D7E0899181117D
:1007400003C0DF91CF9108950E947E03F7CF1092EE
:1007500013069091830697FD03C090E290931306D1
:10076000882331F08091130690E289278093130645
:1007700008958F929F92AF92BF92CF92DF92EF92A5
:10078000FF920F931F93CF93DF93CDB7DEB72D97D3
:100790000FB6F894DEBF0FBECDBF6B017C01042FF6
:1007A00020E030E0A9010E94033987FF07C08DE2F5
:1007B0000E947E03F7FAF094F7F8F094102F1230AD
:1007C00008F054C000FF0AC020E030E040E251E4ED
:1007D000C701B6010E94653B6B017C0120E030E05F
:1007E00040E05FE3C701B6010E940E380E947F39E6
:1007F00010E03AE0832E912CA12CB12CE12FF0E0F7
:100800006115710581059105E9F581E090E08C0F96
:100810009D1FE80FF91F80E3101708F445C010135F
:1008200009C0E1E0F0E0EC0FFD1FE10FF11D80E3F6
:1008300080831F5FEE24E394F12CEC0EFD1EE10E8D
:10084000F11C111134C02D960FB6F894DEBF0FBE07
:10085000CDBFDF91CF911F910F91FF90EF90DF906F
:10086000CF90BF90AF909F908F90089520E030E0A0
:1008700048EC52E4C701B6010E94653B6B017C0164
:1008800012509DCFEE24E394F12CEC0EFD1EEE0EE3
:10089000FF1EA50194010E948E3C605DF7016083FC
:1008A000B901CA011F5FAACF1F5F8193B5CF101393
:1008B00003C08EE20E947E03F70182917F010E94B5
:1008C0007E031150BECF2091830643E020FF07C076
:1008D0002BE832E441E25DE30E94653B44E00C9486
:1008E000B9030F931F93CF938C01C0E0F80161917E
:1008F0007191819191918F010E946304C23019F02E
:100900008CE20E947E03CF5FC33081F7CF911F91AD
:100910000F910895CF93DF93843658F06AE00E94D8
:100920006E3CC0E3C90F6AE00E946E3CD0E3D90F71
:1009300004C0C0E0D0E08A30B0F7805D0E947E0342
:10094000DD2319F08D2F0E947E03CC2329F08C2FFC
:10095000DF91CF910C947E03DF91CF910895CF93D7
:10096000DF93EC01FE0184912196811103C0DF9198
:10097000CF9108950E947E03F5CF8FEB91E00C9408
:10098000AF04CF93C82F88EC91E00E94AF048C2F66
:100990000E948A04CF910C94BD04811104C08FEC95
:1009A00091E00C94AF040C94C104CF92DF92EF92CB
:1009B000FF92CF93DF93D82F6A017B01C22F84E28D
:1009C0000E947E038D2F0E948A048DE30E947E0385
:1009D0004C2FC701B6010E94B903DF91CF91FF9060
:1009E000EF90DF90CF900C94BD04CF93DF93D82F7E
:1009F000C62F84E20E947E038D2F0E948A048DE31D
:100A00000E947E038C2F0E948A04DF91CF910C9468
:100A1000BD04EF92FF920F931F93CF93DF936091EA
:100A20006E0670E080E00E94F5046091710670E04F
:100A300081E00E94F50460916F0670E082E00E9400
:100A4000F5046091700670E083E00E94F504609107
:100A5000830662FB662760F970E084E00E94F5047B
:100A60006091830666FB662760F970E085E00E946E
:100A7000F50480918306082E000C990B692F661FE0
:100A80006627661F70E086E00E94F504609172069A
:100A900070E08AE00E94F50440917306509174065C
:100AA000609175067091760623E08BE00E94D50474
:100AB00040917706509178066091790670917A0698
:100AC00023E08CE00E94D50460918306617070E0A1
:100AD0008DE00E94F5046091830665FB662760F94E
:100AE00070E084E10E94F5046091830663FB662751
:100AF00060F970E085E10E94F504609183066295DB
:100B0000617070E086E10E94F5046091840670E0F7
:100B100087E10E94F5044091850650918606609118
:100B200087067091880623E088E10E94D5044091F1
:100B3000890650918A0660918B0670918C0623E09D
:100B400089E10E94D50460918D0670918E068AE13C
:100B50000E94F50440918F06509190066091910695
:100B60007091920623E08BE10E94D50440917B06B0
:100B700050917C0660917D0670917E0620E08EE1AA
:100B80000E94D50440917F065091800660918106B5
:100B90007091820620E08FE10E94D5046091830667
:100BA0006695617070E080E20E94F50484E6F82E9C
:100BB00010E0CEE3D6E000E0E02EEF0C123011F1B1
:100BC000133069F11130C9F0488159816A817B8104
:100BD00023E08E2D0E94D5040F5F2496033061F729
:100BE0008AE0F80E1F5F8CE8F812E3CFDF91CF9117
:100BF0001F910F91FF90EF9008954C855D856E8554
:100C00007F85E6CF20E030E041E655E4688D798DC0
:100C10008A8D9B8D0E940D39AB01BC01D9CF4CA1AF
:100C20005DA16EA17FA17058D3CF8DE50E947E0398
:100C30000C94BD04CF93DF93CDB7DEB72C970FB6DE
:100C4000F894DEBF0FBECDBF82EC91E00E94AF04EE
:100C500060E276E0CE0101960E946002CE0101962C
:100C60000E9471048AE30E947E03809132060E94F2
:100C70008A040E9415062C960FB6F894DEBF0FBEAC
:100C8000CDBFDF91CF9108954F925F926F927F9287
:100C90008F929F92AF92BF92CF92DF92EF92FF928C
:100CA000CF93DF9300D000D0CDB7DEB7E4E1F6E01C
:100CB00080859185A285B38589839A83AB83BC8324
:100CC000C080D180E280F380448055806680778048
:100CD000C701B601640D751D861D971D22E0822E89
:100CE000912CA12CB12CA50194010E94B03CA1E053
:100CF000B1E02D933D934D935C931397C701B601DB
:100D00006419750986099709A50194010E94B03CF0
:100D10002093050130930601409307015093080189
:100D200089819A81AB81BC818093090190930A01EA
:100D3000A0930B01B0930C010F900F900F900F90A8
:100D4000DF91CF91FF90EF90DF90CF90BF90AF9069
:100D50009F908F907F906F905F904F900895BF927B
:100D6000CF92DF92EF92FF920F931F93CF93DF9377
:100D70007C01FC0102A513A5D4A5C5A5818980FF2E
:100D800033C06091350670E090E080E00E94B73992
:100D90002AE037ED43E25CE30E94653B9B01AC0136
:100DA000B8018D2F9C2F0E94653B8B01D82FC92F36
:100DB00020E030E040E85FE3B8018D2F9C2F0E94D7
:100DC000253B181624F000E010E0D0E8CFE3B8018E
:100DD0008D2F9C2FDF91CF911F910F91FF90EF905E
:100DE000DF90CF90BF90089582FD17C060913406C8
:100DF00070E090E080E00E94B7392AE037ED43E2EE
:100E00005CE30E94653B9B01AC01B8018D2F9C2FD8
:100E10000E94653B8B01D82FC92FF701B6A0C7A050
:100E2000D0A4F1A498014D2F5C2F6B2D7C2D8D2D1E
:100E30009F2D0E94033987FFBBCF0B2D1C2DDD2D6D
:100E4000CF2DB6CF8091320290915305981739F08B
:100E500022E3829FC00111248D5C9D4F089590E094
:100E600080E008950E942207892B19F082E00C94FB
:100E70001C0208952F923F924F925F926F927F9241
:100E80008F929F92AF92BF92CF92DF92EF92FF929A
:100E90000F931F93CF93DF9300D000D0CDB7DEB771
:100EA00000915305002309F486C00983398131502C
:100EB000398310913102131709F466C0C32ED12C67
:100EC000E2E33E9FC00111249C012D5C3D4F79015E
:100ED000F90176888788908CA18C628D738D848DC2
:100EE000958D9B01AC010E940E38F701268D378D40
:100EF00040A151A10E94653BB62EE72EF82E9B83A0
:100F0000262F372F482F592F672D782D892D9A2D71
:100F10000E94033987FF03C0B72C7401AB8282E3C0
:100F20008C9DF0018D9DF00D1124ED5CFD4F8B2DFE
:100F30009E2DAF2DBB81828B938BA48BB58BF981BA
:100F40008F2FF11101C080E1FF24FA94F80E309048
:100F500032021F1133C0131102C00E94F102E2E3FA
:100F60001E9FC00111248D5C9D4F9A838983332479
:100F70003394310EF0E13F1201C0312C82E3282E70
:100F8000031185C0109331020F900F900F900F90B6
:100F9000DF91CF911F910F91FF90EF90DF90CF9055
:100FA000BF90AF909F908F907F906F905F904F9089
:100FB0003F902F90089520E1298378CF298182E303
:100FC000289F900111242D5C3D4F3C832B8322E30D
:100FD000E22E8F2C912CFE9CC0011124FC01ED5CB3
:100FE000FD4FFA83E983F11002C090E1F92EFA94E3
:100FF000F31002C00E94F102E89CC001E99C900D30
:1010000011249C012D5C3D4F6901F90146885788E8
:10101000608C718CA301920162897389848995899E
:101020000E940339882339F1F601628D738D848D16
:10103000958D9B01AC010E940E38F601268D378DEF
:1010400040A151A10E94653BEB81FC81228933893B
:10105000448955890E940E384B015C01AC019B010B
:10106000C301B2010E94253BF60118165CF4828A86
:10107000938AA48AB58A29813A813C832B831F11E4
:10108000A8CF6DCF428A538A648A758AF4CFC32C65
:10109000D12C329CC00111249C012D5C3D4F790163
:1010A000E981FA814288538864887588F9018288C9
:1010B0009388A488B588A5019401C301B2010E9458
:1010C000033987FF26C0E981FA81628D738D848D93
:1010D000958D9B01AC010E940E38E981FA81268D25
:1010E000378D40A151A10E94653BA30192010E944E
:1010F0000E382B013C01AC019B01C501B4010E94DB
:10110000253B181634F4F701428A538A648A758A9B
:10111000132D2C9CF0012D9CF00D1124ED5CFD4F46
:1011200026893789408D518D628973898489958993
:101130000E940339811101C0132D3394F0E13F1255
:1011400001C0312CFA82E9821BCF6F927F928F927D
:101150009F92AF92BF92CF92DF92EF92FF920F9346
:101160001F93CF93DF93EB018C015B018CE0A80E02
:10117000B11C89E9682E96E7792E26E9822E3EE792
:10118000932EC990D990E990F99020E030E0A90120
:10119000C701B6010E9403398823B9F0A70196015F
:1011A000F80160817181828193810E940D396B0108
:1011B0007C01E894F7F89301A401C701B6010E94ED
:1011C000253B181614F0360147010C5F1F4FCA1556
:1011D000DB05B9F6B301C401DF91CF911F910F91E7
:1011E000FF90EF90DF90CF90BF90AF909F908F9047
:1011F0007F906F90089593B18091830686FF0BC016
:10120000967159F091FB882780F992FD8260907168
:1012100029F0846008959095F3CF80E00895EBE67F
:10122000F0E08081897E8083E8E6F0E080818E7F37
:101230008083089584B1897E84B985B1866185B93A
:101240008091830683FF0BC080916B008661809341
:101250006B008091680081608093680008950C9411
:101260000F0964E176E08BEA96E00C946002F89452
:10127000F999FECF92BD81BD81E08FBB20B5862F4D
:101280008227082E000C990B50E086239523892B8A
:1012900049F084E16F3F11F060BD84E08FBBF99AA3
:1012A000789408952617E1F360BD84E2F7CF9F920A
:1012B000AF92BF92CF92DF92EF92FF920F931F9364
:1012C000CF93DF935C018A017B01E40EF51EEB01F5
:1012D000912C6C01C61AD70ACE018C0D9D1D21E000
:1012E000911007C0292D990C330B232F221F222781
:1012F000221F6991962E920E0E943709CE15DF05A6
:1013000059F7692DC501800F911FDF91CF911F9172
:101310000F91FF90EF90DF90CF90BF90AF909F9094
:101320000C9437096AE090E080E00E94370945E5B7
:1013300050E06EE376E081E090E00C945709F99973
:10134000FECF92BD81BD81E08FBB80B508959F9295
:10135000AF92BF92CF92DF92EF92FF920F931F93C3
:10136000CF93DF935B018A017C01E40EF51EEC0153
:10137000912C6B01C81AD90AC6018C0F9D1F0E94BF
:101380009F0921E0911007C0292D990C330B232FC1
:10139000221F2227221F982E920E8993CE15DF0539
:1013A00059F7C501800F911F0E949F0921E030E08D
:1013B000891511F030E020E0C901DF91CF911F9134
:1013C0000F91FF90EF90DF90CF90BF90AF909F90E4
:1013D000089590912E06911105C0811104C0439883
:1013E00010923806089586FFFBCF439AF9CFE1E0CB
:1013F000F1E08CE1DF011D928A95E9F7109232024B
:101400001092530581E080930001109231020895FB
:101410004F925F926F927F92AF92BF92CF92DF9284
:10142000EF92FF920F931F93CF93DF93EC015C0138
:101430002CE0A20EB11C8C01C12CD12C7601F8013C
:1014400041905190619071908F0120E030E0A901AE
:10145000C301B2010E940339882371F0A3019201F4
:10146000C301B2010E94653B9B01AC01C701B601FB
:101470000E940E386B017C010A151B0501F7C7019C
:10148000B6010E94043C6B017C01AC019B0160E051
:1014900070E080E89FE30E940D392B013C016991C7
:1014A0007991899199915E01F4E0AF1AB108A30195
:1014B00092010E94653BF50160837183828393836F
:1014C000C017D10761F7C701B601DF91CF911F9116
:1014D0000F91FF90EF90DF90CF90BF90AF907F90F3
:1014E0006F905F904F9008952F923F924F925F922E
:1014F0006F927F928F929F92AF92BF92CF92DF9224
:10150000EF92FF920F931F93CF93DF93CDB7DEB788
:10151000C454D1090FB6F894DEBF0FBECDBF809181
:10152000310680FD9FC2209153052EAB32E3239FED
:10153000C0011124AC014D5C5D4F21965FAF4EAFF1
:1015400021978091830682708EAFF0913202FFABBB
:10155000FF5FF9A3F03109F4CBC7F8AF22E338AD50
:10156000239FC0011124AC014B5B5D4F23965FAFFD
:101570004EAF23979091540580915505981709F423
:1015800071C280910D0690910E06892B09F07DC0E5
:101590001091310621968EAD9FAD219712FF0E94CA
:1015A000220790930E0680930D06A0910D06B09130
:1015B0000E06BA87A987AB2B09F454C20091DE0549
:1015C00000FF6AC21092DE051092F0051092F1053C
:1015D0001092F2051092F305A985BA855A968D915D
:1015E0009D910D90BC91A02D89839A83AB83BC8380
:1015F0009C01AD0160E070E080E09FE30E940D3946
:101600006D837E838F839887E985FA85468C578C16
:1016100060A071A082889388A488B58811FF2DC32B
:10162000F2E0F093EF05A50194010E94653B9B0158
:10163000AC01C301B2010E940D386B017C0120E0B6
:1016400030E0A9010E94033987FF06C329813A814E
:101650004B815C81CA01B9010E940E38A30192013D
:101660000E94653B9B01AC01C501B4010E940D388D
:101670000E94043C6093FC057093FD058093FE0579
:101680009093FF0518601093310680918005482FD4
:1016900050E05E874D8787E0849FF001859FF00DC5
:1016A0001124EA5AFA4F8091DD058483A0910D063A
:1016B000B0910E06BA87A9875E96BC91BEA3E98554
:1016C000FA85F78DFFA3A985BA859096BC91B8A736
:1016D000E985FA85F1A1F9A72091EB053091EC0598
:1016E0004091ED055091EE056EA17FA18B2F9F2FAC
:1016F0000E940D386AAB7BAB8CAB9DAB20E030E039
:10170000A9010E94033987FF04C01AAA1BAA1CAAB8
:101710001DAA2091F8052D8B3091F9053E8B409143
:10172000FA054F8B5091FB05588F809100068AA3D4
:10173000909101069BA3A0910206ACA3B091030671
:10174000BDA3E0910406EAA7F0910506FBA720914E
:1017500006062CA7309107063DA73090F40520908F
:10176000F5054091F60525964FAF25975091F70561
:1017700024965FAF24978091EF05898B9091F005B7
:101780009EA7A091F105AFA7B091F205B8ABE0918B
:10179000F305E9ABF091FC05FAAF2091FD052BAF05
:1017A0003091FE053CAF4091FF054DAF2AA53BA50A
:1017B0004CA55DA56AA17BA18CA19DA10E940339C6
:1017C0008111E2C352E059AF9EA1998FAFA1AA8FB8
:1017D000B8A5BB8FE9A5EC8F8EE3C82E83ECD82E7D
:1017E0008EE2E82E89E3F82E1D8E1E8E1F8E18A223
:1017F000260137013989313009F483C4A985BA85B6
:10180000313008F4FBC3333009F0B1C45A962D913E
:101810003D914D915C915D97C701B6010E94653B7A
:101820004B015C012D893E894F89588D632D722DA6
:1018300025968FAD259724969FAD24970E940D384D
:101840009B01AC01C501B4010E94253B87FDA6C3E5
:101850002AA13BA14CA15DA16EA17FA188A599A55C
:101860000E940D389B01AC010E940E386B017C0177
:101870002D893E894F89588D632D722D25968FAD08
:10188000259724969FAD24970E940E389B01AC01AA
:10189000C701B6010E940D396B017C013D882E887D
:1018A000BF892596BFAF2597E88D2496EFAF249783
:1018B0000AA11BA1FCA1F9832DA12D8331E0398B55
:1018C000A70196016D8D7E8D8F8D98A10E940E3897
:1018D0006D8F7E8F8F8F98A3A30192010E94033991
:1018E00087FFC2C42D8D3E8D4F8D58A1C301B2011B
:1018F0000E940D386B017C01980149815D816EA5C4
:101900007FA588A999A90E94033987FD40C3832D2B
:10191000922D2596AFAD25972496BFAD2497809341
:10192000F4059093F505A093F605B093F705398972
:101930003093EF05E0918105F09182058189B090A7
:101940003106811102C0B3FE44C0A985BA85519603
:101950009C915197907309F4B1C49E96CD90DD90FF
:10196000ED90FC90D1978823D1F02091080630911A
:10197000090640910A0650910B06632D722D25969B
:101980008FAD259724969FAD24970E94653B9B01C0
:10199000AC01C701B6010E94653B6B017C01C70128
:1019A000B6010E947F399B01AC01A7E1B0E00E9423
:1019B000D53C24EB30E040E050E00E94B03C205F9A
:1019C0003F4F4F4F5F4F20930C068B2D877F8093A7
:1019D000310627E0ED85FE852E9FC0012F9F900DDB
:1019E0001124AC014A5A5A4F3A0180910C06DA018F
:1019F00016968C932091E7053091E8054091E90512
:101A00005091EA05B80189819D810E94653B1B01C7
:101A10002C010E94EC386B017C016091E305709110
:101A2000E4058091E5059091E6050E94EC384B01B4
:101A30005C01A70196010E940D380E9486396987D2
:101A40007A878B879C8729853A85F30131832083A8
:101A5000232B09F03EC48091310681FF3AC4816096
:101A600080933106CC5BDF4F0FB6F894DEBF0FBE1C
:101A7000CDBFDF91CF911F910F91FF90EF90DF903D
:101A8000CF90BF90AF909F908F907F906F905F901E
:101A90004F903F902F9008958091DD058F5F8530A6
:101AA00009F480E08093DD05282F30E0B2E18B9FC0
:101AB000C0011124FC01ED57FA4F7F01F09382051C
:101AC000E0938105A985BA8550968C915097808BBB
:101AD000FD0190E080E04191519161917191D701B8
:101AE000A80FB91F689412F8440F551F661F771F7F
:101AF0001694D1F74D935D936D937C931397049651
:101B00008C30910541F7E985FA8564857585868570
:101B10009785F2E1F29FA001F39F500D1124FA0185
:101B2000ED57FA4F4B015C0123E0880C991CAA1C6D
:101B3000BB1C2A95D1F784869586A686B7860E9417
:101B4000B5396093E3057093E4058093E5059093C0
:101B5000E605A985BA855E962D913D914D915C91E2
:101B600091970E940D399B01AC012093E7053093BA
:101B7000E8054093E9055093EA0560E070E080EAEB
:101B80009FE30E940D396093EB057093EC05809301
:101B9000ED059093EE051092DF051092E00510928E
:101BA000E1051092E20511FD02C003FF42C0609101
:101BB000FC057091FD058091FE059091FF056093F5
:101BC000F4057093F5058093F6059093F7059B0156
:101BD000AC010E94653BE985FA85628B738B848B2F
:101BE000958B077F0093DE05F701118AFEADFF2379
:101BF00009F4EACCA985BA8551968C91519785FF55
:101C0000E3CC9A962D913D914D915C919D9760E02A
:101C100070E080E89FE30E940D396093080670939E
:101C2000090680930A0690930B0621E0F701218BA9
:101C3000CBCCA985BA8552966D917D918D919C9161
:101C400055970E94043C6093F4057093F5058093CA
:101C5000F6059093F705C8CFC092F005D092F10534
:101C6000E092F205F092F3051092FC051092FD054A
:101C70001092FE051092FF0505CD1092EF054092DF
:101C8000000650920106609202067092030612FF4F
:101C90006AC01092FC051092FD051092FE0510928C
:101CA000FF05C12CD12C760189859A850E94AF064B
:101CB000698B7A8B8B8B9C8B9B01AC010E94653B63
:101CC00069877A878B879C87A50194010E940339D5
:101CD00087FF8BC029853A854B855C85C501B4019A
:101CE0000E940D382D813E814F8158850E94653BB1
:101CF0009B01AC01C301B2010E940D386093000644
:101D000070930106809302069093030620E030E072
:101D1000A9010E94033918160CF441C0B2E0B09337
:101D2000EF0529813A814B815C81CA01B9010E948A
:101D30000E38A30192010E94653B9B01AC01C501D5
:101D4000B4010E940D380E94043C6093FC0570931E
:101D5000FD058093FE059093FF058091DE05886068
:101D60008093DE058FCC2EA938ADC12CD12C760105
:101D7000231741F02396AEADBFAD2397CD90DD90F4
:101D8000ED90FC90C701B6010E94043C6093FC05F5
:101D90007093FD058093FE059093FF0585CFA70105
:101DA000960169857A858B859C850E940D382D81E9
:101DB0003E814F8158850E94653B60930406709375
:101DC0000506809306069093070629893A894B8970
:101DD0005C892093F8053093F9054093FA055093F8
:101DE000FB0533E03093EF054DCCA7019601C5010B
:101DF000B4010E940D382D813E814F8158850E948B
:101E0000653BA30192010E940E3820E030E040E0E3
:101E10005FE30E94653B6D877E878F87988B20E00C
:101E200030E0A9010E94253B18160CF094C0A301D4
:101E300092016D857E858F8598890E94033987FF81
:101E400088C0A701960169857A858B859C850E944B
:101E50000D382D813E814F8158850E94653B9B0145
:101E6000AC01209304063093050640930606509378
:101E700007066D857E858F8598890E94253B1816FB
:101E8000BCF589899A89AB89BC898093F8059093C0
:101E9000F905A093FA05B093FB05A50194016985A6
:101EA0007A858B859C850E940339811104C091E05D
:101EB0009093EF05E7CBA501940169857A858B8521
:101EC0009C850E940D382D813E814F8158850E944E
:101ED000653B9B01AC01C301B2010E940D386093C8
:101EE0000006709301068093020690930306CACB06
:101EF0002D853E854F855889209300063093010635
:101F0000409302065093030620930406309305067F
:101F1000409306065093070629813A814B815C81E4
:101F2000CA01B9010E940E382D853E854F8558891A
:101F30000E94653BA70196010E940E380E94043C56
:101F40006093F8057093F9058093FA059093FB056B
:101F500099CB32E047CF8091FC059091FD05A0918F
:101F6000FE05B091FF051092000610920106109236
:101F70000206109203068093F8059093F905A0934A
:101F8000FA05B093FB057ECB81E089AF1DCC098FAC
:101F90001A8FF981FB8F2D812C8F2CCC20E030E023
:101FA00040E05FE3C501B4010E94653B9B01AC01C9
:101FB000632D722D25968FAD259724969FAD24977E
:101FC0000E940D38A70196010E94653B9B01AC0160
:101FD000698D7A8D8B8D9C8D0E940D388B01898344
:101FE0009D83A5019401632D722D25968FAD2597B4
:101FF00024969FAD24970E940D387AC05A962D9151
:102000003D914D915C915D97C701B6010E94653B82
:102010004B015C0120E030E040E05FE30E94653B63
:10202000232D322D25964FAD259724965FAD24970D
:102030000E940E38A70196010E94653B9B01AC01EE
:10204000698D7A8D8B8D9C8D0E940D388B018983D3
:102050009D839B01AC016AA17BA18CA19DA10E94E3
:10206000253B1816CCF52AA13BA14CA15DA16EA180
:102070007FA188A599A50E940D389B01AC010E9403
:102080000E386B017C012D893E894F89588D632D57
:10209000722D25968FAD259724969FAD24970E948B
:1020A0000E389B01AC01C701B6010E940D396B01CE
:1020B0007C01B9ADB98B3D882E88EF892596EFAFAD
:1020C0002597F88D2496FFAF24970AA11BA12CA178
:1020D00029833DA13D83F4CBA5019401632D722D8D
:1020E00025968FAD259724969FAD24970E940E3894
:1020F000362E272E25968FAF259724969FAF2497AF
:10210000DFCB2D893E894F89588DC701B6010E94CA
:10211000653B9B01AC01698D7A8D8B8D9C8D0E94F6
:102120000D388B0189839D832AA53BA54CA55DA510
:102130000E94033987FFC4CB2AA53BA54CA55DA50A
:10214000698D7A8D8B8D9C8D0E940D382D893E89ED
:102150004F89588D0E940D396B017C010AA51BA582
:102160004CA549835DA55D8382E0898BA9CB5A96F6
:102170002D913D914D915C915D97C701B6010E94F3
:10218000653B4B015C01AC019B01632D722D2596D3
:102190008FAD259724969FAD24970E94253B181656
:1021A00064F520E030E040E05FE3C501B4010E9447
:1021B000653B9B01AC01632D722D25968FAD259754
:1021C00024969FAD24970E940D38A70196010E9486
:1021D000653B9B01AC01698D7A8D8B8D9C8D0E9436
:1021E0000D388B0189839D832EA53FA548A959A948
:1021F0000E94253B18160CF4F4CE2EA53FA548A945
:1022000059A9698D7A8D8B8D9C8D0E940D389B010B
:10221000AC010E940E386B017C012AAD3BAD4CAD88
:102220005DAD632D722D25968FAD259724969FADBC
:1022300024970E940E389B01AC01C701B6010E9491
:102240000D396B017C013AAC2BACBCAD2596BFAF10
:102250002597EDAD2496EFAF24970EA51FA5F8A9FD
:10226000F98329A92D832CCB2AA93BA94CA95DA9C7
:10227000B80189819D810E94253B18165CF42EE3EC
:1022800033EC4EE259E3C301B2010E940E382B0138
:102290003C0128CB832D922D2596AFAD2597249612
:1022A000BFAD24978093F4059093F505A093F605B0
:1022B000B093F70549894093EF053CCB10923A065D
:1022C00010923B0610923C0610923D0610920C06AE
:1022D0007CCB2091DF053091E0054091E1055091E4
:1022E000E2056D8D7E8D8F8D98A10E940E38698BD1
:1022F0007A8B8B8B9C8BA2019101C501B4010E944A
:102300000D389B01AC0169897A898B899C890E946F
:102310000D394B015C0120EC31EE44E65EE40E9495
:10232000653B0E94EC380E948639603D57E0750796
:102330008105910508F064C027E0AD85BE852A9F20
:10234000F0012B9FF00D1124EA5AFA4F158227E075
:10235000AD85BE852A9FF0012B9FF00D1124EA5A0E
:10236000FA4F7383628380915505809380058F5F58
:10237000863009F49FC080935505E0910D06F091D9
:102380000E06C801A981BD81868F978FA0A3B1A336
:10239000C092E305D092E405E092E505F092E605EF
:1023A000A2019101C701B6010E940D38A501940157
:1023B0000E94653B6093DF057093E0058093E10523
:1023C0009093E2052091F0053091F1054091F205DE
:1023D0005091F305B80189819D810E9403398111D3
:1023E000C9C8F090310620E030E0A901B801898128
:1023F0009D810E94253B18160CF05FC08F2D2FCBBE
:10240000603A3FE0730781059105A0F5A7E04D858F
:102410005E85A49FF001A59FF00D1124EA5AFA4FA2
:10242000B1E0B583A7E04D855E85A49FF001A59F2F
:10243000F00D1124EA5AFA4F2581022E04C0969518
:102440008795779567950A94D2F749855A8502C092
:10245000440F551F2A95E2F751834083611571059A
:1024600051E08507910508F472CF4FEF5FEF53837A
:10247000428379CF6034EFE17E078105910568F4EE
:1024800047E02D853E85429FF001439FF00D1124CA
:10249000EA5AFA4F52E05583C5CF27E0AD85BE8595
:1024A0002A9FF0012B9FF00D1124EA5AFA4F33E0D6
:1024B0003583B8CF1092550560CFF2FC9FCF1092B4
:1024C0000E0610920D065EA98FA9581709F452C87E
:1024D00099A1903109F419A280913102AFA9A813F2
:1024E00003C0B9A1B0933102E9A1E09332022DC833
:1024F00018AE34C880916F008D7F80936F008091FB
:102500008100887F81608093810010920D0280910C
:10251000710690912D068F3FA1F420911006211194
:1025200010C0903881F490E0019778F481E09091A8
:10253000830692FF02C091E08927882369F0289AD8
:102540000895943081F780E0F2CFEFE9FFE0319712
:10255000F1F700C00000E8CF28980895CF93DF93EB
:102560000E947A12EDEDF5E080E3DF011D928A957D
:10257000E9F7CEE0D2E083E2FE0111928A95E9F715
:1025800010920E0610920D061092540510928005BE
:1025900081E08093550510920D020E9415038091F1
:1025A0000C028F878BB1837E90910B02892B8BB9A4
:1025B0008BB18F7190910C02892B8BB9DF91CF91E8
:1025C000089580910F0684FD1DC080E10E941C02C9
:1025D00080E18093B300439890912D06892F8C72EF
:1025E00021F480913106867069F0943049F480912D
:1025F0001006811103C086E00E940C020C947A122E
:1026000083E0FACF08952F923F924F925F926F929C
:102610007F928F929F92AF92BF92CF92DF92EF9272
:10262000FF920F931F93CF93DF93CDB7DEB7A4979D
:102630000FB6F894DEBF0FBECDBF10911006112368
:1026400049F181E080932D0686E691E00E94AF0477
:10265000812F0E948A040E94BD0485EF91E00197BA
:10266000E1F51150123088F48BE692E00E94AF043D
:1026700089E592E00E94AF040E94150680E10E9465
:10268000120280910F0684FFFCCF8FB7F89410924E
:1026900010068FBF10910F06112309F453C214FFC7
:1026A00023C081E080932E06A4960FB6F894DEBF77
:1026B0000FBECDBFDF91CF911F910F91FF90EF9093
:1026C000DF90CF90BF90AF909F908F907F906F9052
:1026D0005F904F903F902F900895EFE9FFE0319782
:1026E000F1F700C00000BBCF10FF8BC08CE0E4E12D
:1026F000F6E0DE01599601900D928A95E1F7BE0150
:10270000675E7F4FCE010D960E9460028CE30E94AF
:102710007E0380912D06883009F4EDC008F0C8C012
:10272000813009F4F1C008F4E1C0823009F4EFC04F
:10273000843009F4E6C080917206F82FF1709F2E64
:1027400080FFFAC080913906882309F4F5C088E833
:1027500091E00E94AF04CE010D960E9471040E9488
:10276000FB08E82E0E94E502F82E06B10072809167
:10277000130608278E2D8F29802B59F18CE791E0C5
:102780000E94AF04002319F080E50E947E03EE2032
:1027900079F0E0FE03C088E50E947E03E1FE03C0FD
:1027A00089E50E947E03E2FE03C08AE50E947E0363
:1027B000FF2079F0F0FE03C082E50E947E03F1FE67
:1027C00003C088E40E947E03F2FE03C083E50E94FA
:1027D0007E0380913906882309F4FDC081508093DF
:1027E000390600913806002309F40EC10150009308
:1027F00038068EE30E947E030E94BD0481E00E94A1
:102800001202812F887E09F44DC180912D06982FE8
:10281000937009F036C18872A9F080912F06807CF0
:1028200089F40E94F10282E08093310680912D06A6
:10283000803241F480E217FD0CC080912F06806841
:1028400080932F0680912D06811103C091E0909313
:102850002F0616FF07C085FD05C090912F069064D6
:1028600090932F0613FF05C0807E19F480E18093BA
:102870002D0615FF06C18BE692E00E94AF0487E1AA
:1028800092E00E94AF040E94150680912F0687FDFA
:10289000F3C090912D06903409F0EBC083FF04C083
:1028A000837E826080932F0680E480932D06E4C0AF
:1028B000803221F198F4803109F03DCF80912F06CC
:1028C00087FD1CC080EB91E00E94AF0480912F0631
:1028D00080FF2EC080E30E947E032DCF8034D1F094
:1028E000803809F028CF8FE891E002C08AEB91E0B0
:1028F0000E94AF0420CF86EB91E0FACF8CEA91E002
:10290000F7CF87EA91E0F4CF81EA91E0F1CF8BE94C
:1029100091E0EECF85E991E00E94AF0480912F060F
:1029200083FF02C083E3D7CF82FF04C085FFD2CFED
:1029300081E3D1CF82E3CFCF4090CF065090D00635
:102940006090D1067090D20657EBA52E56E0B52EBA
:102950009E012F5F3F4F6901CE010D967C0100E083
:10296000F50161917191819191915F01208531858E
:10297000428553850E940E38F601619371938193CD
:1029800091936F01023041F4A30192010E940E382D
:1029900069877A878B879C87911012C0F6013497DC
:1029A0002081318142815381F7016081718182816F
:1029B00093810E940D38F701608371838283938332
:1029C0000F5FF4E0EF0EF11C033051F69110BFCE13
:1029D00081E891E0BECE80912D068C7799F08DE153
:1029E0008093390680913806811103C081E080937D
:1029F000380686E791E00E94AF04CE0101960E945E
:102A00007104EFCE89E0ECCF80912D068C7779F1BF
:102A100083E18093380681E791E00E94AF048091C2
:102A200034060E948A048CE20E947E03809135065F
:102A30000E948A048CE20E947E03809136060E94E6
:102A40008A0485B18072F82E439BB2C101E08DE605
:102A500091E00E94AF04FF2019F083E50E947E03FD
:102A6000002309F4C6CE86E40E947E03C2CE89E02C
:102A7000D0CF903809F018CF80912F0680628093D4
:102A80002F0617FF0CC080912D06813029F480910C
:102A90002F06856080932F0680E880932D0688EEB0
:102AA0000E94120211FF28C0812F887611F58091B3
:102AB0002D06803441F480912F0685FD04C084FFEB
:102AC000DFC010922D0680912D06882309F4DEC008
:102AD00084FF0FC090912F0690FF0BC0803109F04A
:102AE000D5C080913706882309F4D0C088608093D0
:102AF000370682E00E94120212FF24C090912F0636
:102B000080912D06807D09F4DAC080913006811114
:102B1000D6C097FDD6C00E94F10280913202809308
:102B200031020E943A078091310681FF05C09091E1
:102B30002F06916090932F06897F8093310684E061
:102B40000E94120290911106992309F44CC08FB78C
:102B5000F894109211068FBF40913406842F90FD97
:102B600084E691FD865F92FD8A5093FD8F5F94FD10
:102B70008150893C08F088EC8A3008F48AE0309172
:102B80003506232F95FD24E696FD22E397FD29E1E6
:102B9000481302C0231739F1809334062093350679
:102BA000109238067090320260905305172D89E913
:102BB000282E96E7392E26E9422E3EE7532E42E391
:102BC000842E161199C0C101D201809319019093EE
:102BD0001A01A0931B01B0931C010E94F102709294
:102BE00031020E943A0790911206992309F440C0DD
:102BF0008FB7F894109212068FBF20913606822F5D
:102C000090FD84E691FD865F92FD8A5093FD8F5F73
:102C100094FD8150893C08F088EC8A3008F48AE001
:102C2000281749F0209131062860209331068093BF
:102C300036061092380680912D0695FF09C0803126
:102C400039F4209137062111ADC022E020933706D8
:102C5000907C71F0882311F0887151F010919B06DF
:102C600016FFA4C01F7B812F0E94E90910939B06C9
:102C700080912D068C7F09F417CD0E94740A14CD23
:102C800082FF21CF886080932F061DCF10923106DE
:102C90000E942207892B71F080912F0686FD0AC0C1
:102CA00010922F0688E080932D060E94740A0E94DD
:102CB00032031FCF10922F0610922D061ACF97FFC6
:102CC0000AC0109231060E94F7090E94AE120E94BB
:102CD00031090E94440680912F0685FF08C08F7736
:102CE000816080932F0680E480932D0628CF109278
:102CF0002F0610922D0623CFA12EB12C189DC001B6
:102D000011248D5C9D4F0E94AF06962EC72ED82EA3
:102D1000092F9101A2010E94253B8A9C70018B9C86
:102D2000F00C112497012D5C3D4F790118168CF59C
:102D30009101A201B101C2010E94653BF701668BBE
:102D4000778B808F918F8A9CC0018B9C900D112472
:102D50009C012D5C3D4F7901F90122A033A044A0D4
:102D600055A0A201910166897789808D918D0E947D
:102D7000253B18162CF4F701268A378A408E518E8F
:102D80001F5F103109F410E0292C3C2C4D2C502EE3
:102D900018CF292D3C2D4D2D502F692D7C2D8D2D9B
:102DA000902FCACF20FF54CF246050CF10645BCF48
:102DB000882309F41ECD4BCE1F93CF93DF93142F9E
:102DC00020E030E040EA51E40E94653B0E94EC388C
:102DD0000E948639EB012097C9F080912E0681115F
:102DE00015C011110DC00E940A172FEF80E792E065
:102DF000215080409040E1F700C000002197EBCFC8
:102E00000E94031380912F0681FFEFCFDF91CF91B6
:102E10001F910895CF92DF92EF92FF921F93CF936D
:102E2000DF930E94031380912F06882309F45FC06B
:102E30000E942207FC01892B99F490919C068091B5
:102E40009B06982BC0909E06D0909F06E090A0060F
:102E5000F090A106D92FD07311E0C92FC07427C0FC
:102E60009189C6A4D7A4E0A8F1A8F4CF90912E062A
:102E700091113DC080FF19C090912D06292F207C13
:102E800009F482C082FD18C01092370640E050E07D
:102E9000BA0180E00E944B0380E00E94E909809122
:102EA0002F068D7F846080932F060E9403138091EC
:102EB0002F068111DBCF1BC0903821F58BE692E005
:102EC0000E94AF0484ED91E00E94AF040E941506B9
:102ED00040E050E0BA0180E00E944B0380E00E9495
:102EE000E9090E947A1280912E06882341F0DF9131
:102EF000CF911F91FF90EF90DF90CF9008950E94A7
:102F00000313F1CF903419F48F7D80932F068091B5
:102F10002F0683FFCACF90919C06992359F081FD1B
:102F200009C08091830681FF22C0809131068860AC
:102F30008093310680919B06882371F080912F0643
:102F400081FD0AC08C2F0E94E90941E060E070E039
:102F500080E89FE30E94DC1680912F0681FDA5CFBB
:102F6000806180932F0682E00E941C029ECFB701F1
:102F7000A6018D2F0E944B0341E060E070E080E8E5
:102F800090E40E94DC16D6CF809137068823C9F1E1
:102F900081FF0DC080919C06882351F140E050E0F4
:102FA000BA0180E00E944B03109337067ECF8C70ED
:102FB00009F47BCF80919C06882399F08BE692E000
:102FC0000E94AF048DED91E00E94AF040E941506AF
:102FD0008091830681FF0FC08091310688608093C5
:102FE00031068091370683FF03C082E00E941C02F5
:102FF000109237065ACFB701A6018D2F0E944B03BE
:10300000F0CF8091310683FF50CFB701A6018D2FFD
:103010000E944B0380913106877F8093310645CF14
:103020000E9432070E940A1780912E06811108C063
:103030000E942207892BB1F780912D06883091F3E9
:103040000895CF93DF9391E5899FE0011124DD5F1F
:1030500040E550E0BE018DE097E00E94A709892B72
:1030600079F410920D070E94101840E550E06DE0D1
:1030700077E0CE010E94570980E0DF91CF9108955B
:1030800081E0FBCF0E941018109239060895CF926C
:10309000DF92EF92FF92CF9390912D06923079F0CC
:1030A0006A017B01C82F0E941018B701A6018C2F5E
:1030B000CF91FF90EF90DF90CF900C944B03CF9186
:1030C000FF90EF90DF90CF9008950F931F93CF93D1
:1030D000C82F8B010E9410182DE0C29FC00111243F
:1030E0004CE050E0B8019E5FCF911F910F910C947E
:1030F00057091F93CF93DF93182FEB018DE0189F93
:10310000B00111247E5F4CE050E0CE010E94A7097F
:10311000892B71F48CE0FE0111928A95E9F7BE01CA
:10312000812F0E94651880E0DF91CF911F91089553
:1031300081E0FACFEF92FF920F931F93CF93DF932B
:10314000CDB7DEB72C970FB6F894DEBF0FBECDBF5C
:10315000182F80FFD5C08AE080936E0689E18093A6
:10316000710610926F061092700681E080937206CD
:103170008AE097EDA3E2BCE3809373069093740614
:10318000A0937506B09376068FE692E1A3E0BBE3C9
:103190008093770690937806A0937906B0937A0689
:1031A00080E090E0AAE7B4E480937B0690937C06ED
:1031B000A0937D06B0937E0610927F061092800643
:1031C00010928106109282061092840680E090E0B0
:1031D000A8ECB1E48093850690938606A0938706B9
:1031E000B093880680E090E0AAEFB3E4809389066C
:1031F00090938A06A0938B06B0938C062AEF30E05A
:1032000030938E0620938D0640E050E060E87FE327
:1032100040938F06509390066093910670939206A8
:103220001092830640E050E06AE773E440933E0664
:1032300050933F06609340067093410640934206C8
:1032400050934306609344067093450640934606A8
:1032500050934706609348067093490680934A0648
:1032600090934B06A0934C06B0934D0680934E0668
:1032700090934F06A0935006B09351068093520648
:1032800090935306A0935406B093550680E090EABD
:10329000ACE0B7E48093560690935706A093580687
:1032A000B093590680935A0690935B06A0935C06F0
:1032B000B0935D0680935E0690935F06A0936006D0
:1032C000B093610680E090E0A8E4B3EC80936206DE
:1032D00090936306A0936406B09365068093660698
:1032E00090936706A0936806B093690680936A0678
:1032F00090936B06A0936C06B0936D060E949209A2
:1033000011FF10C0CE0101967C018CE0F7011192F3
:103310008A95E9F700E0B701802F0E9465180F5FDA
:103320000830C9F712FF14C060E080E093E00E940B
:10333000370960E081E093E00E94370960E081E5B1
:1033400093E00E94370960E082E593E00E9437092C
:1033500013FF0AC060E08EEA93E00E94370960E044
:103360008FEA93E00E9437092C960FB6F894DEBFDF
:103370000FBECDBFDF91CF911F910F91FF90EF90C6
:1033800008952F923F924F925F926F927F928F9209
:103390009F92AF92BF92CF92DF92EF92FF920F93E4
:1033A0001F93CF93DF93CDB7DEB7CA54D1090FB6C1
:1033B000F894DEBF0FBECDBF98A38F8F7AA369A309
:1033C000409053054D8E242C312C82E3489E900171
:1033D0001124A9014D5C5D4F5CA34BA3DA011D9242
:1033E0008A95E9F7FB018085DA0151968C93448137
:1033F000558166817781EBA1FCA146A757A760ABF9
:1034000071AB81FF66C2C0901406D0901506E090A3
:103410001606F09017064090180650901906609016
:103420001A0670901B06498E5A8E6B8E7C8EC301D5
:10343000B2016C0D7D1D8E1D9F1D22E0822E912CF0
:10344000A12CB12CA50194010E94B03C29013A01A4
:10345000C701B601298D3A8D4B8D5C8D621B730BB4
:10346000840B950BA50194010E94B03C69017A017F
:1034700080901C0690901D06A0901E06B0901F061E
:1034800040913E0650913F06609140067091410682
:1034900049A75AA76BA77CA7AF8DB8A12D913D91E5
:1034A0004D915C9169A57AA58BA59CA50E94653B71
:1034B0000E94323B21966CAF7DAF8EAF9FAF2197BC
:1034C00020914206309143064091440650914506B2
:1034D00029AB3AAB4BAB5CABAF8DB8A114962D9139
:1034E0003D914D915C91179769A97AA98BA99CA9E7
:1034F0000E94653B0E94323B6DA37EA38FA398A7D9
:1035000021968CAD9DADAEADBFAD219784199509C7
:10351000A609B7090DA11EA12FA138A50C191D09D7
:103520002E093F0942E3429DF001439DF00D112415
:10353000ED5CFD4FAC01BD01400F511F621F731FB9
:1035400077FF07C070956095509541955F4F6F4F1D
:103550007F4F408351836283738342E3429DF00136
:10356000439DF00D1124ED5CFD4FAC01BD01401BEE
:10357000510B620B730B77FF07C0709560955095E8
:1035800041955F4F6F4F7F4F4483558366837783A9
:103590004090460650904706609048067090490655
:1035A00049AE5AAE6BAE7CAE6BA07CA078AE6FAA73
:1035B0009E01235F3F4F3A8F298F3EAB2DAB10E02A
:1035C00042E3429D9001439D300D11242D5C3D4FFF
:1035D000A901445F5F4F23965FAF4EAF2397AC01C5
:1035E000BD014DA05EA06FA078A4441955096609DD
:1035F00077092A013B014C0C5D1C6E1C7F1C29962F
:103600004CAE5DAE6EAE7FAE29974DA05EA06FA0B2
:1036100078A4840D951DA61DB71D2C013D014C18E5
:103620005D086E087F08A901405F5F4F25965FAF78
:103630004EAF2597B901685F7F4F2B967FAF6EAF76
:103640002B97EFA9F8AD81919191A191B191F8AF2C
:10365000EFAB2396EEADFFAD2397C080D180E28023
:10366000F380C816D906EA06FB0610F46C017D014A
:103670002396AEADBFAD2397CD92DD92ED92FC9235
:10368000139711116EC1C301B2010E94B73929A568
:103690003AA54BA55CA50E940D39EDA9FEA9619341
:1036A000719381939193FEABEDAB20E030E0A901E3
:1036B0000E94033987FF0EC090E2112321F090E4AD
:1036C000113009F090E82596AEADBFAD25978C91ED
:1036D000892B8C931F5F133009F014C180E0CD2833
:1036E000CE28CF2809F4DBC0CE010D960E94080A2F
:1036F0004B015C0182E3829D8001839D100D1124AA
:103700000D5C1D4FF801868E978EA0A2B1A2BE015E
:10371000635F7F4F86E596E00E94A508D8015A9620
:103720006D937D938D939C935D97BE01635F7F4FF7
:103730008AE496E00E94A508F80166A377A380A713
:1037400091A7F188F0FE2BC162A773A784A795A764
:10375000809132024D8C481611F0F1FE3AC182E39D
:10376000829DF001839DF00D1124ED5CFD4F128AC6
:10377000138A148A158A12A213A214A215A282E334
:10378000829D8001839D100D11240D5C1D4FD80179
:1037900051968C9181FD82C08BA19CA10E94AF06A5
:1037A0006B017C014090190150901A0160901B013F
:1037B00070901C01AC019B01C301B2010E9403394E
:1037C00087FFCFC1A3019201C301B2010E94653BF3
:1037D000F801668B778B808F918F82E3829D8001C9
:1037E000839D100D11240D5C1D4FF80142A053A0C4
:1037F00064A075A0A301920166897789808D918D5F
:103800000E94253B18163CF4D80156964D925D92C5
:103810006D927C925997C0921901D0921A01E09250
:103820001B01F0921C018CE0FE013D96ADE0B1E081
:1038300001900D928A95E1F721964CAC5DAC6EAC8F
:103840007FAC2197409201015092020160920301E6
:10385000709204014DA05EA06FA078A44092050173
:103860005092060160920701709208014DA45EA477
:103870006FA478A84092090150920A0160920B014E
:1038800070920C0180910001809353058F5F80310D
:1038900009F480E0809300010E943A0781E0C65B52
:1038A000DF4F0FB6F894DEBF0FBECDBFDF91CF91D3
:1038B0001F910F91FF90EF90DF90CF90BF90AF904E
:1038C0009F908F907F906F905F904F903F902F9040
:1038D00008954090010150900201609003017090A2
:1038E0000401C0900501D0900601E0900701F0901E
:1038F00008018090090190900A01A0900B01B090FE
:103900000C01BECD123009F09CCEAF8DB8A1189637
:103910002D913D914D915C911B9769AD7AAD8BAD29
:103920009CAD0E94653B0E94323B6DA77EA78FA78E
:1039300098ABDC01CB0188199909AA09BB09B7FF2B
:1039400007C0B095A095909581959F4FAF4FBF4F01
:103950002B96EEADFFAD2B9780839183A283B3832B
:1039600070CE113069F429966CAD7DAD8EAD9FADF2
:1039700029970E94B73929A93AA94BA95CA98BCEEE
:103980006DA57EA58FA598A9681979098A099B0953
:103990000E94B73929AD3AAD4BAD5CAD7CCEE9A103
:1039A000FAA12081318142815381F3FC08C0D80102
:1039B0009A962D933D934D935C939D97C9CEC501E7
:1039C000B4010E94653BF80162A773A784A795A77D
:1039D000BFCE2DE031E03E8F2D8F8E010F5F1F4F48
:1039E000498D5A8D445F5F4F5AA749A7C12CD12CEE
:1039F00076010F8F19A3AD8DBE8D8D909D90AD90EA
:103A0000BD90BE8FAD8FE98DFA8D41905190619040
:103A10007190FA8FE98FA3019201C501B4010E9450
:103A2000653B9B01AC01C701B6010E940D386B01DB
:103A30007C01A5019401C301B2010E940D38D80197
:103A40006D937D938D939D938D0149A45AA4698CA8
:103A50007A8C4614570479F62FEE3FEF4FE75FE379
:103A6000C701B6010E94253B18164CF482E3829DE3
:103A7000F001839DF00D1124ED5CFD4F7CCE2FEE07
:103A80003FEF4FE75FEBC701B6010E94033987FFA5
:103A900011C082E3829DF001839DF00D1124ED5C45
:103AA000FD4F89E996E7A6E9BEE782A393A3A4A305
:103AB000B5A365CE8F8D99A10E94080A6F8D79A15B
:103AC00086E596E00E94A5082B013C01A70196011E
:103AD00060E070E080E89FE30E940D3820E030E075
:103AE00040E05FE30E94653B0E94043C6B017C0167
:103AF00020917306309174064091750650917606B8
:103B0000C301B2010E94653BA70196010E94653B7B
:103B10004B015C01A701960160E070E080E89FE343
:103B20000E940D389B01AC01C501B4010E940D3902
:103B30006B017C0120E030E0A9010E94033987FF7E
:103B400003C0C12CD12C760182E3829DF001839DBC
:103B5000F00D1124ED5CFD4FC2A2D3A2E4A2F5A2A8
:103B60000ECEA7019601C701B6010E94653BD801A0
:103B700056966D937D938D939C9359972ECEFF927D
:103B80000F931F93CF93DF938C01EB0180918306FA
:103B900085FF23C0F0902D0680E2F81611F1C801D0
:103BA0000E9425028823C9F081E08093300688E0D6
:103BB000F8120CC00E941C020E940A1780912E0667
:103BC00081110BC080912D068111F6CF0E94E11268
:103BD00082E00E940C020E940A1780912D0682301A
:103BE00041F10E940A1780912E06811122C0909106
:103BF000320280910001981303C00E943207F1CF76
:103C0000BE01C8010E94C119811113C080918306B1
:103C100081FF0FC0888584FF0CC04C815D816E815F
:103C20007F8180E1DF91CF911F910F91FF900C94E4
:103C30004718DF91CF911F910F91FF9008952F9218
:103C40003F924F925F926F927F928F929F92AF922C
:103C5000BF92CF92DF92EF92FF920F931F93CF9379
:103C6000DF93CDB7DEB7CC54D1090FB6F894DEBFE1
:103C70000FBECDBFE3EDF6E08AE3DF011D928A952A
:103C8000E9F78BE0E3E9F6E0A4EDB6E001900D92F0
:103C90008A95E1F780910D078432A1F01A8E1BA25C
:103CA000312C212C1EA61DA610E01B8E1F8EEE248B
:103CB000E394F12CAAE0AA2EB12CB1E68B2EB3E04E
:103CC0009B2E4EC181E08093D4061092D50683E0EE
:103CD0008A8FB1E0BBA3E4CF9FEB9D0D9A3110F02A
:103CE0000C94B32B8F5F8A8FBE016A5E7F4FCE012B
:103CF0004A960E944D01882311F40C94B62B4E88ED
:103D00005F88688C798CC301B2010E94483C0E9494
:103D10008639062F70E090E080E00E94B7399B0161
:103D2000AC01C301B2010E940D3820E030E048EC44
:103D300052E40E94653B0E94D23B0E948639CB012F
:103D4000E7E4DE1629F1FDE4DF1609F465C1EAEBCC
:103D5000ED0DE53108F02CC00E2E000CFF0BED54DC
:103D6000F14E0C94CF3C5320D81ED81E80208B20BF
:103D70009620A120D81EA520D81EB320D81EBD2075
:103D8000C720D120D81ED81ED81EE120EE20FB204F
:103D9000083209F4DDC030F5043160F4013108F077
:103DA00098C0043009F474C0B0F00A3009F468C057
:103DB00084E196C00C3109F463C040F40631C0F7C9
:103DC00025E1201B2093D60626E087C00E3109F49A
:103DD00057C0063269F74F8D41110C94B92BA2E000
:103DE000AF8F28C00D3309F4AEC0E0F4053309F4F9
:103DF0004FC088F40B3211F00133D1F6BF8DB111F1
:103E00000C94B92B013309F095C01092D906E3E068
:103E1000EF8F28E04FC00C3358F606530093DA06B4
:103E200029E05BC00C3508F50A3508F073C0003591
:103E300009F0BECF0093D40621E0063209F04DC050
:103E40008431910551F08E31910539F08832910518
:103E500021F08233910509F0ABCFB5010E947A3C85
:103E600066576093D40621E025C00C3549F00F3524
:103E700008F09ECF2EE5201B2093D50625E02DC00F
:103E8000009731F42F8D21110C94B92B31E03F8F25
:103E90000093D306202F2D7F2C3119F020E00C3514
:103EA000E1F4009719F00A9709F082CF600F609350
:103EB000D30620E0C70102C0880F991F2A95E2F7B8
:103EC0002DA53EA528233923232B09F443C085E1E2
:103ED00007C001510093D80622E0892B59F387E1EE
:103EE000C45BDF4F0FB6F894DEBF0FBECDBFDF91CE
:103EF000CF911F910F91FF90EF90DF90CF90BF90E7
:103F0000AF909F908F907F906F905F904F903F9079
:103F10002F900895892B29F40A550093D70623E0A2
:103F2000C9CF6A30710509F043CF0A3509F440CF93
:103F300024E0C0CF0A9709F03BCFF1E0F093D90617
:103F400023E02F8F66CF892B09F032CF2AE0B2CF42
:103F500027E0C3CFADA5BEA5A82BB92BBEA7ADA7A3
:103F60008A8DE82FF0E0E35FF84FD080D110B4CE17
:103F7000BB8DBB2329F0EF8DE11102C0F2E0FF8F72
:103F800025FE0FC08091F0069091F106A091F206F7
:103F9000B091F30681389649A849B10514F00C9404
:103FA000C52B3BA1332309F433C120FE43C18091CB
:103FB000D6068130B1F423E333E34BEC51E4609156
:103FC000DF067091E0068091E1069091E2060E9482
:103FD000653B6093DF067093E0068093E106909363
:103FE000E20630FC10C080919E0690919F06A09141
:103FF000A006B091A1068093FC069093FD06A093C5
:10400000FE06B093FF068091D306843009F02DC1DF
:1040100026FC29C18CE164CF892B09F060CF0630E2
:1040200050F4033098F00430D9F080E10530C9F441
:104030001092DD0618C0083008F4BACE0A3048F1F4
:104040000E3109F0B5CE0093DB0604C0002321F049
:104050000130C9F78BE008C0B3E0B093DB06FACFBC
:1040600080E28093DD068CE0F70102C0EE0FFF1FB7
:104070008A95E2F7CF012DA53EA52E233923232BC8
:1040800009F025CF2DA53EA52E2B392B3EA72DA718
:1040900067CF093029F080E48093DC068DE0E4CF1F
:1040A0001092DC06FBCF4092DF065092E006609251
:1040B000E1067092E20680E06701082E02C0CC0C97
:1040C000DD1C0A94E2F7960122213321232B11F003
:1040D0000C94BF2BD40102C0B595A7958A95E2F741
:1040E000A0FF0BC020E030E0A901C301B2010E9493
:1040F000033987FF02C00C94C22B2C283D2830CFF7
:104100004092E3065092E4066092E5067092E6065D
:10411000116081E0D1CF4092E7065092E8066092AC
:10412000E9067092EA06126082E0C6CF4092EB0682
:104130005092EC066092ED067092EE06146083E0F9
:10414000BBCF0093EF0684E0B7CFC301B2010E945A
:104150007F396093F0067093F1068093F206909396
:10416000F30685E0A9CF4092F4065092F5066092DE
:10417000F6067092F70686E09FCF4092F8065092BE
:10418000F9066092FA067092FB0687E095CF40929E
:10419000FC065092FD066092FE067092FF0688E0D3
:1041A0008BCF20E030E04FE753E4C301B2010E941F
:1041B000253B181614F40C94BC2B0093000789E0DF
:1041C0007BCF4092010750920207609203077092E2
:1041D00004073B8D31603B8F8AE06ECF409205072C
:1041E0005092060760920707709208074B8D426055
:1041F0004B8F8BE061CF4092090750920A07609283
:104200000B0770920C078B8D84608B8F8CE054CFE2
:104210008091D506813081F44F8D423009F0E1CE96
:104220008091D406803509F4DCCE882309F4D9CEF8
:1042300020FCD7CE86E154CE809194068111D1CE58
:1042400020FCB5CE8091A2069091A306A091A40671
:10425000B091A5068093DF069093E006A093E10657
:10426000B093E206BECEE89426F88091D806882363
:1042700059F0813009F4BBC022961FAE2297A2E00C
:10428000ABAFB1E0B9AF07C082E022968FAF229703
:1042900091E09BAF19AE8091D606813071F5E3EDC8
:1042A000CE2EE6E0DE2EF12CE12C2B8DA22EB12CB1
:1042B000C5010E2C02C0959587950A94E2F780FF00
:1042C00012C023E333E34BEC51E4D6019E966D918B
:1042D0007D918D919C91D1970E94653BF60166A7D7
:1042E00077A780AB91ABFFEFEF1AFF0A24E0C20E75
:1042F000D11C33E0E316F104D9F64F8D433049F475
:104300008091D906813029F48B8D843011F00C9482
:10431000C82B8CE0E7EBF6E0DE01119601900D92E0
:104320008A95E1F7ADA5BEA5B1FD69C00091D306A0
:104330000A3009F478C00C3509F419C19F8D933007
:1043400009F43FC0AB8DAA23E1F1B091D706BFA31A
:104350008091CF069091D006A091D106B091D2065F
:1043600089A79AA7ABA7BCA793E9A92E96E0B92E77
:1043700023EDC22E26E0D22EF12CE12C9B8D892E2E
:10438000912CC4010E2C02C0959587950A94E2F7F2
:1043900080FD5DC1F501808D918DA28DB38DF601FB
:1043A00086A797A7A0ABB1ABFFEFEF1AFF0A24E0F7
:1043B000A20EB11C34E0C30ED11C43E0E416F1049C
:1043C00001F70E3109F494C1053309F4B8C163EE65
:1043D00076E086E00C3109F02DC10E94791888231F
:1043E00001F18B8D811188C119A61F8EA9C0E1E052
:1043F0002296EFAF22971BAEF2E0F9AF4CCF80913F
:10440000DA06873010F08DE16BCD9091990689170F
:1044100009F48CCFBE016F5F7F4F0E947918811124
:1044200085CF87E05DCDBB8DB11102C08AE158CD4B
:10443000C10180759927892B09F4ECCD6091F406B0
:104440007091F5068091F6069091F7060E94483C1F
:104450000E9486396730B8F68091EF06843129F0E2
:10446000823009F0A5CC27FCA3CC662309F474C0E4
:10447000615069A763EE76E089A50E9479188823C8
:1044800081F20091EF064090CF065090D0066090E8
:10449000D1067090D20673EDC72E76E0D72EF12CA0
:1044A000E12C3B8D232F30E038A72FA38FA198A5B7
:1044B0000E2C02C0959587950A94E2F780FF33C0D1
:1044C000D6019E968D909D90AD90BC90D197043171
:1044D00009F046C0F701EE0FFF1FEE0FFF1FED566C
:1044E000F94F20A931A942A953A9608D718D828D00
:1044F000938D0E940D38A50194010E940D38F6019C
:10450000608B718B828B938BF2E0EF120CC0A30156
:1045100092010E940D386093EB067093EC06809335
:10452000ED069093EE06BFEFEB1AFB0AE4E0CE0E29
:10453000D11CF3E0EF16F10409F0B8CF2FEA2222E4
:104540008091D4068FA3803509F000C19B8D9923FB
:1045500009F406C18FE1C4CCE091DA06E9A78ACF5D
:1045600050968D929D92AD92BC925397DCCF3B8D2D
:10457000332309F45BCF4090CF065090D006609073
:10458000D1067090D20643E9842E46E0942ECE01E7
:1045900001967C0153EDA52E56E0B52ED12CC12CF1
:1045A000A32FB0E0B8A7AFA38FA198A50C2C02C091
:1045B000959587950A94E2F780FF3EC0F701208128
:1045C000318142815381D40158966D917D918D91B5
:1045D0009C915B970E940D38F50126A537A540A94F
:1045E00051A90E940D38D5019E966D937D938D93B0
:1045F0009C93D197B2E0CB120CC0A30192010E9410
:104600000D386093090770930A0780930B07909306
:104610000C07FFEFCF1ADF0A24E0820E911C34E072
:10462000E30EF11C44E0A40EB11C83E0C816D104D3
:1046300009F0BACF19A684CFF40180A991A9A2A943
:10464000B3A9F50186A797A7A0ABB1ABE2CF05331D
:1046500009F4AACED6019E964D905D906D907C9007
:10466000D197BFA1B11133C0F701EE0FFF1FEE0FBD
:10467000FF1F21E030E02C0F3D1FE20FF31FD5019B
:10468000D0962D913D914D915C91D3976081718130
:10469000828193810E940E38A30192010E940E38FC
:1046A000F60166A777A780AB91ABF2E0EF127CCE64
:1046B00029A53AA54BA55CA50E940E386093090771
:1046C00070930A0780930B0790930C076DCEA3019C
:1046D0009201D50158966D917D918D919C915B973A
:1046E0000E940E38F60166A777A780AB91AB5CCE2F
:1046F00063EE76E087E071CEA3E9B6E0E3EDF6E0A5
:1047000090E080E04B8D242F30E0A901082E02C0FC
:10471000559547950A94E2F740FD0AC058964D9189
:104720005D916D917C915B97408B518B628B738B0C
:104730000196149634968330910539F77BCF80919A
:10474000D406823008F476CF8EE1CACBAF8DA2308A
:1047500039F4BFA1B11173C0EB8DEE2309F48DC004
:104760002BA12170EBA1C101E0FFD8C28E7DFF8D8E
:10477000F111937E892B11F00C94D12B8E01035FE4
:104780001F4F89E0D8011D928A95E9F7222309F489
:10479000C8C28DA59EA5867B892B11F00C94D42BC5
:1047A0008091D306853319F081110C94D42B80911C
:1047B0009E0690919F06A091A006B091A106898BBC
:1047C0009A8BAB8BBC8B80919C0690919B06892B1E
:1047D0004091DF065091E0066091E1067091E2069B
:1047E0004D875E876F87788B84608D8B8091830681
:1047F00085FF06C081E097E00E9425028111D7C79E
:10480000B80181E097E00E94BF1D80912D068111C3
:104810000BC00E942207892B39F080E280932D067D
:104820000E94740A0E9432038CE0E1E0F7E0ABEAF8
:10483000B6E001900D928A95E1F780E051CB20E03F
:1048400030E0A9016091DF067091E0068091E106F9
:104850009091E2060E940339882309F4EBCCFFA172
:10486000FC38B9F060F4F23059F1F33061F1F13015
:1048700009F076CF3B8D311173CF1F8E71CF2FA1F1
:104880002E3839F018F02F3809F06ACF9BA19061CB
:104890009BA38FA18E58823018F4ABA1A860ABA364
:1048A000BB8DBB2309F4C2CD4CE050E061E077E062
:1048B0008BEA96E00E94EF3C892B09F051CF6DC046
:1048C0004BA144604BA38B8D882309F4AFCDB9ADC8
:1048D000AB2FB0E0BAABA9ABFBADEF2FF0E0FEAB76
:1048E000EDAB81E090E07C0109AC02C0EE0CFF1C56
:1048F0000A94E2F70BAC02C0880F991F0A94E2F702
:10490000E82AF92A2B8D822F90E08E219F21892B76
:1049100009F441C7FD01EE0FFF1FEE0FFF1FED521F
:10492000F94FAA0FBB1FAA0FBB1FA555B94F2D9159
:104930003D914D915C9166A577A580A991A90E94B2
:104940000D382B013C01EDA9FEA9EE0FFF1FEE0F64
:10495000FF1FED52F94FADA9BEA9AA0FBB1FAA0FA9
:10496000BB1FA555B94F2D913D914D915C9166A509
:1049700077A580A991A90E940D384B015C0127FE03
:10498000FFC0E89427F84CE050E061E077E08BEA64
:1049900096E00E94EF3C892B11F481E2A1CA60915C
:1049A000F8067091F9068091FA069091FB06209125
:1049B000D606213071F423E333E34BEC51E40E943B
:1049C000653B6093F8067093F9068093FA0690931E
:1049D000FB068091F8069091F906A091FA06B09135
:1049E000FB0621968CAF9DAFAEAFBFAF2197A30161
:1049F0009201C301B2010E94653B29966CAF7DAF65
:104A00008EAF9FAF2997A5019401C501B4010E9403
:104A1000653B2D966CAF7DAF8EAF9FAF2D9720E09D
:104A200030E040E850E421966CAD7DAD8EAD9FAD99
:104A300021970E94653B21962CAD3DAD4EAD5FADFB
:104A400021970E94653B29962CAD3DAD4EAD5FADE3
:104A500029970E940D382D962CAD3DAD4EAD5FAD22
:104A60002D970E940D386B017C0120E030E0A901F8
:104A70000E94033987FD92C6C701B6010E94043C1B
:104A80006B017C012D962CAD3DAD4EAD5FAD2D97EC
:104A900029966CAD7DAD8EAD9FAD29970E940E38E5
:104AA0000E94043C9B01AC01C701B60190580E94D2
:104AB0000D396B017C019FA1933021F4F7FAF0943A
:104AC000F7F8F09420E030E0A90121966CAD7DADBF
:104AD0008EAD9FAD21970E94033987FF13C0F7FA6F
:104AE000F094F7F8F09421968CAD9DADAEADBFADCE
:104AF0002197B0588093F8069093F906A093FA0690
:104B0000B093FB0609A91AA9000F111F000F111F6E
:104B10000D51194FA7019601C501B4010E94653BD3
:104B20009B01AC01C301B2010E940D3820E030E0CE
:104B300040E05FE30E94653BD8016D937D938D93C8
:104B40009C9313970DA91EA9000F111F000F111F91
:104B50000D51194FA7019601C301B2010E94653B97
:104B6000A50194010E940E3820E030E040E05FE3B0
:104B70000E94653BF8016083718382839383F0CD4B
:104B8000C12ED12CE122FD2083E2EF2809F4A8C92F
:104B9000F1EF2F228091D606813041F503ED16E02A
:104BA000F12CE12CC6010E2C02C0959587950A9434
:104BB000E2F780FF12C023E333E34BEC51E4D8016A
:104BC00050966D917D918D919C9153970E94653B7C
:104BD000F801608B718B828B938BFFEFEF1AFF0ACA
:104BE0000C5F1F4F23E0E216F104E1F6E9A9FAA9F0
:104BF000EE0FFF1FEE0FFF1FED51F94FC080D18068
:104C0000E280F380A7019601C301B2010E940D3832
:104C10002B013C01EDA9FEA9EE0FFF1FEE0FFF1FB8
:104C2000ED51F94F80819181A281B38189AB9AAB1B
:104C3000ABABBCAB9C01AD01C501B4010E940D380A
:104C40004B015C01A3019201C301B2010E94653BCB
:104C50002B013C01A5019401C501B4010E94653BF3
:104C60009B01AC01C301B2010E940E380E94043CBA
:104C70004B015C01A7019601C701B6010E94653B8B
:104C80006B017C0129A93AA94BA95CA9CA01B90108
:104C90000E94653B9B01AC01C701B6010E940E3822
:104CA0000E94043C6B017C01C092F806D092F90688
:104CB000E092FA06F092FB06AC019B01C501B4013B
:104CC0000E940D384B015C01E894B7F82AE037EDFB
:104CD00043EA5BE3C501B4010E94253B18160CF0C2
:104CE0003FCD20E030E040E05FE3C501B4010E9429
:104CF000253B18160CF451CE2FE632E143E85AE377
:104D0000C701B6010E94653B9B01AC01C501B4011E
:104D10000E94253B18160CF023CD3FCE8E7D9C7F44
:104D200026CD80918306F0909C0681FF12C08FA152
:104D30008150833018F0BBA1B064BBA3EB8DEE2390
:104D400009F445C1FF8DF23009F041C12BA1206863
:104D50002BA38091F0069091F106A091F206B091FC
:104D6000F3068093A7069093A806A093A906B09394
:104D7000AA068091D50680939406882311F088E0D6
:104D80008D8B8091DF069091E006A091E106B091B5
:104D9000E2068093A2069093A306A093A406B09384
:104DA000A5068D879E87AF87B88B8090FC06909074
:104DB000FD06A090FE06B090FF06A501940160914B
:104DC0009E0670919F068091A0069091A1060E9478
:104DD00003399BA19074E92E811103C0ABA1A5FFFB
:104DE0001FC0FF2069F0BBA1B7FD0AC040E050E042
:104DF000BA01E11002C0B501A4018F2D0E9447182D
:104E00008091FC069091FD06A091FE06B091FF06F0
:104E100080939E0690939F06A093A006B093A10650
:104E2000E1100CC080919E0690919F06A091A00673
:104E3000B091A106898B9A8BAB8BBC8B80910007BC
:104E40008093A6068091DD0690919C06981751F0FC
:104E500049895A896B897C890E9447188091DD06AF
:104E600080939C068D8990919C06892B8D8BF09068
:104E7000DC0680919B068F1579F080912D0682309B
:104E800029F00E9410188F2D0E94E9099091DC06EC
:104E90009111B4C010929B068D8990919B06892B2D
:104EA0008D8B8091D306843099F480912D068230C9
:104EB00079F0C090F406D090F506E090F606F090F8
:104EC000F7060E94101840E0C701B6010E94DC16E8
:104ED0008091D806809397068091D6068093950698
:104EE000EF8DE33071F58091D9068093980681119A
:104EF00008C01092090710920A0710920B0710922F
:104F00000C07C0900907D0900A07E0900B07F090BB
:104F10000C07A70196016091CF067091D006809191
:104F2000D1069091D2060E940339882351F0C09295
:104F3000CF06D092D006E092D106F092D2060E941F
:104F400042188091DA0690919906981769F080933B
:104F500099068CE0FE013196A7EBB6E001900D9228
:104F60008A95E1F70E9442188091D70680939606B1
:104F70008091D306863209F484C008F045C08C3194
:104F800009F465C08E3109F462C08A3009F449C061
:104F90008091D40680939306803509F44FC3BF8D6A
:104FA000B23009F04BC3813009F07FC0BE01635FAE
:104FB0007F4F81E097E00E94BF1D8CE0E1E0F7E0C9
:104FC000ABEAB6E001900D928A95E1F737C330E184
:104FD000F312BFCE9BA190748091930681508330D1
:104FE00038F4992309F4B5CE4BA140624BA3B1CE5E
:104FF0009111AFCE8BA180628BA3ABCE80919B062B
:10500000892B80939B0648CF8C3509F440C08636A7
:1050100009F443C0883209F0BBCF6BEA76E087E041
:1050200033C063EE76E089A50E94651880919906E9
:10503000F9A5F813ADCF8CE0E3EEF6E0A7EBB6E010
:1050400001900D928A95E1F70E944218A1CF8D89B7
:1050500081608D8B2F8D222329F0B80181E097E0AC
:105060000E94BF1DB80183EE96E00E94BF1D8CE038
:10507000E3EEF6E0ABEAB6E001900D928A95E1F737
:1050800087CF6BEA76E086E00E94651881CF8CE0DE
:10509000E1E0F7E0A3ECB6E0D3CFE3ECF6E08CE0A0
:1050A000DF011D928A95E9F7CFCF811105C08D8967
:1050B00081608D8BB8017DCF8250823008F097C21D
:1050C0008091F8069091F906A091FA06B091FB063E
:1050D0008F8F98A3A9A3BAA3A9AD94E0A99F70014B
:1050E0001124F701E555F94FF8A7EFA397012D51CA
:1050F000394F3AA729A7D9014D905D906D907C90CA
:105100002081318142815381C301B2010E940E3856
:105110006DA77EA78FA798ABEBADB4E0EB9F8001A6
:10512000112498012555394F3AAF29AFC8018D5147
:10513000994F9CAF8BAFDC018D909D90AD90BC9052
:10514000F9012081318142815381C501B4010E945E
:105150000E3869AB7AAB8BAB9CAB77FA709477F86F
:105160007094D501C401B0588B8F9C8FAD8FBE8FCA
:10517000F701EF5FF84F2DA53EA54FA558A9608117
:105180007181828193810E940D386B017C01F8014D
:10519000EF5FF84F29A93AA94BA95CA960817181F9
:1051A000828193810E940D384B015C01A701960119
:1051B000C301B2010E94653B6DAB7EAB8FAB98AF74
:1051C000A50194016B8D7C8D8D8D9E8D0E94653B1C
:1051D0009B01AC016DA97EA98FA998AD0E940E38E4
:1051E0006DAB7EAB8FAB98AFA5019401C301B2014B
:1051F0000E94653B4B015C01A70196016B8D7C8D84
:105200008D8D9E8D0E94653B9B01AC01C501B40153
:105210000E940D382DA93EA94FA958AD0E948D3886
:105220006B017C019BA192FF68C12DEB37E346E047
:1052300055EBC701B6010E94253B87FD0AC02BED47
:105240003FE049EC50E4C701B6010E940D386B0104
:105250007C018090770690907806A0907906B090B7
:105260007A062F8D38A149A15AA1CA01B9010E941D
:105270000E38A50194010E940D38A50194010E94E9
:10528000653B0E94043C4B015C0120E030E040E0C3
:105290005FE3C701B6010E94653B2F8D38A149A18C
:1052A0005AA10E94653B9F77A50194010E940D3988
:1052B0000E94F2390E9486397EAB6DABDB01AB2BCD
:1052C00009F474CE1D8990E080E00E94B5394B014D
:1052D0005C0113FF0EC0AC019B016D857E858F853F
:1052E00098890E94653B6D877E878F87988B177F93
:1052F0001D8BA5019401C701B6010E940D396BA356
:105300007CA38DA39EA32296EFAD2297B4E0EB9FE2
:10531000C00111248C010555194F8F5F984FD8019A
:105320002D913D914D915C91FC0160817181828153
:1053300093810E940D38A50194010E940D39299690
:105340006CAF7DAF8EAF9FAF29972BA13CA14DA134
:105350005EA1CA01B9010E94653B9B01AC0160E0FE
:1053600070E080E090E40E940D386B017C012BEA34
:105370003AEA4AE25EE36BA17CA18DA19EA10E9464
:10538000653B4B015C0120E030E040E850E4C701A0
:10539000B6010E940E389B01AC01C501B4010E9408
:1053A000653B21966CAF7DAF8EAF9FAF219720E01C
:1053B00030E040E05FE3C701B6010E94653B2596FF
:1053C0006CAF7DAF8EAF9FAF25971F8E22242394A5
:1053D000312CEDA9FEA9E215F30509F4E7CDFF8D07
:1053E000FC3008F09EC0A301920121966CAD7DAD0A
:1053F0008EAD9FAD21970E94653B6B017C012B8D8B
:105400003C8D4D8D5E8D25966CAD7DAD8EAD9FAD89
:1054100025970E94653B9B01AC01C701B6010E9424
:105420000E387B016C01A301920125966CAD7DAD18
:105430008EAD9FAD25970E94653B4B015C012B8D86
:105440003C8D4D8D5E8D21966CAD7DAD8EAD9FAD4D
:1054500021970E94653B9B01AC01C501B4010E94EC
:105460000D382B013C012F8D2F5F2F8F47015601E7
:105470008B8E9C8EAD8EBE8EA30192016DA57EA5F6
:105480008FA598A90E940E38EFA1F8A560837183BB
:10549000828393832B8D3C8D4D8D5E8D69A97AA976
:1054A0008BA99CA90E940E38A9ADBAAD6D937D93CE
:1054B0008D939C93139729962CAD3DAD4EAD5FAD6A
:1054C0002997F80160817181828193810E940E3851
:1054D000D8016D937D938D939C931397BE01635F69
:1054E0007F4F8BEA96E00E94BF1D80912E068111AE
:1054F00064CDBFEF2B1A3B0A6CCF2DEB37E346E0B0
:1055000055E3C701B6010E94033918160CF4A1CE69
:105510002BED3FE049EC50E4C701B6010E940E3884
:1055200096CEB10190E080E00E94B5392BA13CA15C
:105530004DA15EA10E94653B6B017C010E94083970
:105540006B8F7C8F8D8F9E8FC701B6010E94F63BBB
:105550004B015C01A9A5BAA5CD90DD90ED90FC9022
:10556000F7FAF094F7F8F094ABADBCAD8D919D9146
:105570000D90BC91A02D8F8F98A3A9A3BAA3A701CA
:1055800096016B8D7C8D8D8D9E8D0E94653B2B01D0
:105590003C012F8D38A149A15AA1C501B4010E9437
:1055A000653B9B01AC01C301B2010E940E382B0187
:1055B0003C01A7019601C501B4010E94653B6B0146
:1055C0007C012F8D38A149A15AA16B8D7C8D8D8DC9
:1055D0009E8D0E94653B9B01AC01C701B6010E94F4
:1055E0000D386B8F7C8F8D8F9E8F1F8E45CF8D8951
:1055F00084608D8B80912D06823009F4DECC0E9470
:10560000101880912E06811119C0FBA1F071FF2E98
:10561000109232062BA123FB882780F90E94A70352
:1056200086B1807290911306891719F184E00E9467
:105630000C020E940A1780E00E94A7038091DB06FB
:1056400080939A06882311F40C94701F0E941018FE
:1056500080919A0690912D06833009F04DC09230CA
:1056600029F088E00E941C020E940A1710929A06F4
:10567000E4C8B80181E097E00E94BF1D81E08093FB
:105680002C0682E00E941C020E940A1780912E06BE
:105690008111D4CF80912D068111F6CF80912C06F7
:1056A000813031F5FF2001F18CE0E4E1F6E0A0E289
:1056B000B6E001900D928A95E1F710922C0680E0F9
:1056C0000E94A7030E940A170E94AE120E94F709C7
:1056D0000E9444060E941A0680913206882309F42B
:1056E0006CCC0E943109AACF85E00E940C02E5CF64
:1056F00081E080933206E1CF81E08093930610929F
:10570000970610929606109294061092990610929F
:105710009C0610929B0684E680933406809335069F
:10572000809336069230A1F067EB76E080E00E942D
:105730007918882311F40C9411220E94421840E039
:1057400050E0BA0180E00E944B0380E00E94E9092A
:105750008BE692E00E94AF0482E092E00E94AF04E8
:105760000E94150683CF81E00C94701F82E00C9498
:10577000701F88E10C94701F86E20C94701F89E101
:105780000C94701F84E00C94701F8BE10C94701FBC
:1057900085E20C94701F80E20C94701F82E20C94DE
:1057A000701F84E20C94701F80E10C94701F8FE0D6
:1057B0000C94701FCF93DF93C0E08C2F0E942118B0
:1057C000811114C010920D078EE30E947E030E9487
:1057D0009A038AE30E947E0387E00E94C104C130DD
:1057E00019F4DF91CF910895C1E0E7CF80910D07C3
:1057F0008823A9F30E941F1ED82F8EE30E947E03E8
:105800000E949A038AE30E947E038D2F0E94CD049A
:10581000E6CF2F923F924F925F926F927F928F923C
:105820009F92AF92BF92CF92DF92EF92FF920F932F
:105830001F93CF93DF93CDB7DEB7AB970FB6F89436
:10584000DEBF0FBECDBF90912E069111A4C189A7D6
:10585000FE013D9689E0DF011D928A95E9F786E019
:105860008D8BEEE3F6E0FE8FED8F9E012A5E3F4FBB
:1058700079016F0110E000E0812C912C54018CE043
:10588000382E99A5892F90E098A38F8F802F202FF5
:1058900094E0002321F098E0013009F090E12230FB
:1058A00009F0B3C0D7019C932F8D38A102C0359564
:1058B00027958A95E2F720FF17C020E030E040EC02
:1058C0005FEBD60194966D917D918D919C91979708
:1058D0000E94653B2B013C01A50194010E94033904
:1058E00087FD02C0420153010F5F1F4FB4E0CB0E92
:1058F000D11CEFEFEE1AFE0A0330110539F6409085
:10590000890650908A0660908B0670908C0604E0A1
:1059100011E064E176E0CE0101960E946002809180
:105920001C0690911D06A0911E06B0911F0689A32A
:105930009AA3ABA3BCA380918406A82FB0E0BBA719
:10594000AAA7FE0131967F01C12CD12C312C212C2C
:10595000D501C401B0588DA39EA3AFA3B8A7298ECB
:105960008F8D98A1022C02C0959587950A94E2F735
:1059700080FF8FC0C39421104BC0609114067091BA
:105980001506809116069091170620911806309101
:10599000190640911A0650911B06621B730B840B6B
:1059A000950B22E030E040E050E00E94B03C2093B4
:1059B0001406309315064093160650931706882751
:1059C0009927DC01821B930BA40BB50B809318065F
:1059D00090931906A0931A06B0931B068AA59BA55F
:1059E000098C02C0959587950A94E2F780FFECC078
:1059F000112309F440C08DA19EA1AFA1B8A5F70164
:105A000080839183A283B3833CC0F70130824CCF63
:105A1000A98DA13059F560911406709115068091F9
:105A2000160690911706209118063091190640919C
:105A30001A0650911B06620F731F841F951F22E0E8
:105A400030E040E050E00E94B03C209318063093D4
:105A5000190640931A0650931B06209314063093A0
:105A600015064093160650931706B8CF19A21AA22E
:105A70001BA21CA2B3CFD7018D929D92AD92BC9276
:105A80001397E6E1F0E0EC0FFD1FE20DF31D8081BE
:105A9000D82AFFEF2F1A3F0A24E0E20EF11C33E070
:105AA0002316310409F05BCF89A19AA1ABA1BCA157
:105AB00080931C0690931D06A0931E06B0931F06AC
:105AC0006C2D70E090E080E00E94B5390E94043CAB
:105AD000D0923306A30192010E94653B6D877E87B9
